{
  "_format": "hh-sol-artifact-1",
  "contractName": "GalaxyWarToken",
  "sourceName": "contracts/GalaxyWarToken.sol",
  "abi": [
    {
      "inputs": [
        {
          "internalType": "address",
          "name": "distributor",
          "type": "address"
        },
        {
          "internalType": "uint256",
          "name": "transfersRestrictedBefore",
          "type": "uint256"
        },
        {
          "internalType": "uint256",
          "name": "transferRestrictionLiftedNoLaterThan",
          "type": "uint256"
        }
      ],
      "stateMutability": "nonpayable",
      "type": "constructor"
    },
    {
      "anonymous": false,
      "inputs": [
        {
          "indexed": true,
          "internalType": "address",
          "name": "owner",
          "type": "address"
        },
        {
          "indexed": true,
          "internalType": "address",
          "name": "spender",
          "type": "address"
        },
        {
          "indexed": false,
          "internalType": "uint256",
          "name": "value",
          "type": "uint256"
        }
      ],
      "name": "Approval",
      "type": "event"
    },
    {
      "anonymous": false,
      "inputs": [
        {
          "indexed": true,
          "internalType": "address",
          "name": "delegator",
          "type": "address"
        },
        {
          "indexed": true,
          "internalType": "address",
          "name": "delegatee",
          "type": "address"
        },
        {
          "indexed": false,
          "internalType": "enum IGovernancePowerDelegationERC20.DelegationType",
          "name": "delegationType",
          "type": "uint8"
        }
      ],
      "name": "DelegateChanged",
      "type": "event"
    },
    {
      "anonymous": false,
      "inputs": [
        {
          "indexed": true,
          "internalType": "address",
          "name": "user",
          "type": "address"
        },
        {
          "indexed": false,
          "internalType": "uint256",
          "name": "amount",
          "type": "uint256"
        },
        {
          "indexed": false,
          "internalType": "enum IGovernancePowerDelegationERC20.DelegationType",
          "name": "delegationType",
          "type": "uint8"
        }
      ],
      "name": "DelegatedPowerChanged",
      "type": "event"
    },
    {
      "anonymous": false,
      "inputs": [
        {
          "indexed": true,
          "internalType": "address",
          "name": "previousOwner",
          "type": "address"
        },
        {
          "indexed": true,
          "internalType": "address",
          "name": "newOwner",
          "type": "address"
        }
      ],
      "name": "OwnershipTransferred",
      "type": "event"
    },
    {
      "anonymous": false,
      "inputs": [
        {
          "indexed": true,
          "internalType": "address",
          "name": "from",
          "type": "address"
        },
        {
          "indexed": true,
          "internalType": "address",
          "name": "to",
          "type": "address"
        },
        {
          "indexed": false,
          "internalType": "uint256",
          "name": "value",
          "type": "uint256"
        }
      ],
      "name": "Transfer",
      "type": "event"
    },
    {
      "anonymous": false,
      "inputs": [
        {
          "indexed": false,
          "internalType": "address",
          "name": "account",
          "type": "address"
        },
        {
          "indexed": false,
          "internalType": "bool",
          "name": "isAllowed",
          "type": "bool"
        }
      ],
      "name": "TransferAllowlistUpdated",
      "type": "event"
    },
    {
      "anonymous": false,
      "inputs": [
        {
          "indexed": false,
          "internalType": "uint256",
          "name": "transfersRestrictedBefore",
          "type": "uint256"
        }
      ],
      "name": "TransfersRestrictedBeforeUpdated",
      "type": "event"
    },
    {
      "inputs": [],
      "name": "DELEGATE_BY_TYPE_TYPEHASH",
      "outputs": [
        {
          "internalType": "bytes32",
          "name": "",
          "type": "bytes32"
        }
      ],
      "stateMutability": "view",
      "type": "function"
    },
    {
      "inputs": [],
      "name": "DELEGATE_TYPEHASH",
      "outputs": [
        {
          "internalType": "bytes32",
          "name": "",
          "type": "bytes32"
        }
      ],
      "stateMutability": "view",
      "type": "function"
    },
    {
      "inputs": [],
      "name": "DOMAIN_SEPARATOR",
      "outputs": [
        {
          "internalType": "bytes32",
          "name": "",
          "type": "bytes32"
        }
      ],
      "stateMutability": "view",
      "type": "function"
    },
    {
      "inputs": [],
      "name": "EIP712_DOMAIN",
      "outputs": [
        {
          "internalType": "bytes32",
          "name": "",
          "type": "bytes32"
        }
      ],
      "stateMutability": "view",
      "type": "function"
    },
    {
      "inputs": [],
      "name": "EIP712_VERSION",
      "outputs": [
        {
          "internalType": "bytes",
          "name": "",
          "type": "bytes"
        }
      ],
      "stateMutability": "view",
      "type": "function"
    },
    {
      "inputs": [],
      "name": "INITIAL_SUPPLY",
      "outputs": [
        {
          "internalType": "uint256",
          "name": "",
          "type": "uint256"
        }
      ],
      "stateMutability": "view",
      "type": "function"
    },
    {
      "inputs": [],
      "name": "PERMIT_TYPEHASH",
      "outputs": [
        {
          "internalType": "bytes32",
          "name": "",
          "type": "bytes32"
        }
      ],
      "stateMutability": "view",
      "type": "function"
    },
    {
      "inputs": [],
      "name": "TRANSFER_RESTRICTION_LIFTED_NO_LATER_THAN",
      "outputs": [
        {
          "internalType": "uint256",
          "name": "",
          "type": "uint256"
        }
      ],
      "stateMutability": "view",
      "type": "function"
    },
    {
      "inputs": [
        {
          "internalType": "address",
          "name": "",
          "type": "address"
        }
      ],
      "name": "_propositionPowerDelegates",
      "outputs": [
        {
          "internalType": "address",
          "name": "",
          "type": "address"
        }
      ],
      "stateMutability": "view",
      "type": "function"
    },
    {
      "inputs": [
        {
          "internalType": "address",
          "name": "",
          "type": "address"
        },
        {
          "internalType": "uint256",
          "name": "",
          "type": "uint256"
        }
      ],
      "name": "_propositionPowerSnapshots",
      "outputs": [
        {
          "internalType": "uint128",
          "name": "blockNumber",
          "type": "uint128"
        },
        {
          "internalType": "uint128",
          "name": "value",
          "type": "uint128"
        }
      ],
      "stateMutability": "view",
      "type": "function"
    },
    {
      "inputs": [
        {
          "internalType": "address",
          "name": "",
          "type": "address"
        }
      ],
      "name": "_propositionPowerSnapshotsCounts",
      "outputs": [
        {
          "internalType": "uint256",
          "name": "",
          "type": "uint256"
        }
      ],
      "stateMutability": "view",
      "type": "function"
    },
    {
      "inputs": [
        {
          "internalType": "address",
          "name": "",
          "type": "address"
        }
      ],
      "name": "_tokenTransferAllowlist",
      "outputs": [
        {
          "internalType": "bool",
          "name": "",
          "type": "bool"
        }
      ],
      "stateMutability": "view",
      "type": "function"
    },
    {
      "inputs": [
        {
          "internalType": "uint256",
          "name": "",
          "type": "uint256"
        }
      ],
      "name": "_totalSupplySnapshots",
      "outputs": [
        {
          "internalType": "uint128",
          "name": "blockNumber",
          "type": "uint128"
        },
        {
          "internalType": "uint128",
          "name": "value",
          "type": "uint128"
        }
      ],
      "stateMutability": "view",
      "type": "function"
    },
    {
      "inputs": [],
      "name": "_totalSupplySnapshotsCount",
      "outputs": [
        {
          "internalType": "uint256",
          "name": "",
          "type": "uint256"
        }
      ],
      "stateMutability": "view",
      "type": "function"
    },
    {
      "inputs": [],
      "name": "_transfersRestrictedBefore",
      "outputs": [
        {
          "internalType": "uint256",
          "name": "",
          "type": "uint256"
        }
      ],
      "stateMutability": "view",
      "type": "function"
    },
    {
      "inputs": [
        {
          "internalType": "address",
          "name": "",
          "type": "address"
        }
      ],
      "name": "_votingDelegates",
      "outputs": [
        {
          "internalType": "address",
          "name": "",
          "type": "address"
        }
      ],
      "stateMutability": "view",
      "type": "function"
    },
    {
      "inputs": [
        {
          "internalType": "address",
          "name": "",
          "type": "address"
        },
        {
          "internalType": "uint256",
          "name": "",
          "type": "uint256"
        }
      ],
      "name": "_votingSnapshots",
      "outputs": [
        {
          "internalType": "uint128",
          "name": "blockNumber",
          "type": "uint128"
        },
        {
          "internalType": "uint128",
          "name": "value",
          "type": "uint128"
        }
      ],
      "stateMutability": "view",
      "type": "function"
    },
    {
      "inputs": [
        {
          "internalType": "address",
          "name": "",
          "type": "address"
        }
      ],
      "name": "_votingSnapshotsCounts",
      "outputs": [
        {
          "internalType": "uint256",
          "name": "",
          "type": "uint256"
        }
      ],
      "stateMutability": "view",
      "type": "function"
    },
    {
      "inputs": [
        {
          "internalType": "address[]",
          "name": "addressesToAdd",
          "type": "address[]"
        }
      ],
      "name": "addToTokenTransferAllowlist",
      "outputs": [],
      "stateMutability": "nonpayable",
      "type": "function"
    },
    {
      "inputs": [
        {
          "internalType": "address",
          "name": "owner",
          "type": "address"
        },
        {
          "internalType": "address",
          "name": "spender",
          "type": "address"
        }
      ],
      "name": "allowance",
      "outputs": [
        {
          "internalType": "uint256",
          "name": "",
          "type": "uint256"
        }
      ],
      "stateMutability": "view",
      "type": "function"
    },
    {
      "inputs": [
        {
          "internalType": "address",
          "name": "spender",
          "type": "address"
        },
        {
          "internalType": "uint256",
          "name": "amount",
          "type": "uint256"
        }
      ],
      "name": "approve",
      "outputs": [
        {
          "internalType": "bool",
          "name": "",
          "type": "bool"
        }
      ],
      "stateMutability": "nonpayable",
      "type": "function"
    },
    {
      "inputs": [
        {
          "internalType": "address",
          "name": "account",
          "type": "address"
        }
      ],
      "name": "balanceOf",
      "outputs": [
        {
          "internalType": "uint256",
          "name": "",
          "type": "uint256"
        }
      ],
      "stateMutability": "view",
      "type": "function"
    },
    {
      "inputs": [],
      "name": "decimals",
      "outputs": [
        {
          "internalType": "uint8",
          "name": "",
          "type": "uint8"
        }
      ],
      "stateMutability": "view",
      "type": "function"
    },
    {
      "inputs": [
        {
          "internalType": "address",
          "name": "spender",
          "type": "address"
        },
        {
          "internalType": "uint256",
          "name": "subtractedValue",
          "type": "uint256"
        }
      ],
      "name": "decreaseAllowance",
      "outputs": [
        {
          "internalType": "bool",
          "name": "",
          "type": "bool"
        }
      ],
      "stateMutability": "nonpayable",
      "type": "function"
    },
    {
      "inputs": [
        {
          "internalType": "address",
          "name": "delegatee",
          "type": "address"
        }
      ],
      "name": "delegate",
      "outputs": [],
      "stateMutability": "nonpayable",
      "type": "function"
    },
    {
      "inputs": [
        {
          "internalType": "address",
          "name": "delegatee",
          "type": "address"
        },
        {
          "internalType": "uint256",
          "name": "nonce",
          "type": "uint256"
        },
        {
          "internalType": "uint256",
          "name": "expiry",
          "type": "uint256"
        },
        {
          "internalType": "uint8",
          "name": "v",
          "type": "uint8"
        },
        {
          "internalType": "bytes32",
          "name": "r",
          "type": "bytes32"
        },
        {
          "internalType": "bytes32",
          "name": "s",
          "type": "bytes32"
        }
      ],
      "name": "delegateBySig",
      "outputs": [],
      "stateMutability": "nonpayable",
      "type": "function"
    },
    {
      "inputs": [
        {
          "internalType": "address",
          "name": "delegatee",
          "type": "address"
        },
        {
          "internalType": "enum IGovernancePowerDelegationERC20.DelegationType",
          "name": "delegationType",
          "type": "uint8"
        }
      ],
      "name": "delegateByType",
      "outputs": [],
      "stateMutability": "nonpayable",
      "type": "function"
    },
    {
      "inputs": [
        {
          "internalType": "address",
          "name": "delegatee",
          "type": "address"
        },
        {
          "internalType": "enum IGovernancePowerDelegationERC20.DelegationType",
          "name": "delegationType",
          "type": "uint8"
        },
        {
          "internalType": "uint256",
          "name": "nonce",
          "type": "uint256"
        },
        {
          "internalType": "uint256",
          "name": "expiry",
          "type": "uint256"
        },
        {
          "internalType": "uint8",
          "name": "v",
          "type": "uint8"
        },
        {
          "internalType": "bytes32",
          "name": "r",
          "type": "bytes32"
        },
        {
          "internalType": "bytes32",
          "name": "s",
          "type": "bytes32"
        }
      ],
      "name": "delegateByTypeBySig",
      "outputs": [],
      "stateMutability": "nonpayable",
      "type": "function"
    },
    {
      "inputs": [
        {
          "internalType": "address",
          "name": "delegator",
          "type": "address"
        },
        {
          "internalType": "enum IGovernancePowerDelegationERC20.DelegationType",
          "name": "delegationType",
          "type": "uint8"
        }
      ],
      "name": "getDelegateeByType",
      "outputs": [
        {
          "internalType": "address",
          "name": "",
          "type": "address"
        }
      ],
      "stateMutability": "view",
      "type": "function"
    },
    {
      "inputs": [
        {
          "internalType": "address",
          "name": "user",
          "type": "address"
        },
        {
          "internalType": "uint256",
          "name": "blockNumber",
          "type": "uint256"
        },
        {
          "internalType": "enum IGovernancePowerDelegationERC20.DelegationType",
          "name": "delegationType",
          "type": "uint8"
        }
      ],
      "name": "getPowerAtBlock",
      "outputs": [
        {
          "internalType": "uint256",
          "name": "",
          "type": "uint256"
        }
      ],
      "stateMutability": "view",
      "type": "function"
    },
    {
      "inputs": [
        {
          "internalType": "address",
          "name": "user",
          "type": "address"
        },
        {
          "internalType": "enum IGovernancePowerDelegationERC20.DelegationType",
          "name": "delegationType",
          "type": "uint8"
        }
      ],
      "name": "getPowerCurrent",
      "outputs": [
        {
          "internalType": "uint256",
          "name": "",
          "type": "uint256"
        }
      ],
      "stateMutability": "view",
      "type": "function"
    },
    {
      "inputs": [
        {
          "internalType": "address",
          "name": "spender",
          "type": "address"
        },
        {
          "internalType": "uint256",
          "name": "addedValue",
          "type": "uint256"
        }
      ],
      "name": "increaseAllowance",
      "outputs": [
        {
          "internalType": "bool",
          "name": "",
          "type": "bool"
        }
      ],
      "stateMutability": "nonpayable",
      "type": "function"
    },
    {
      "inputs": [],
      "name": "name",
      "outputs": [
        {
          "internalType": "string",
          "name": "",
          "type": "string"
        }
      ],
      "stateMutability": "view",
      "type": "function"
    },
    {
      "inputs": [
        {
          "internalType": "address",
          "name": "owner",
          "type": "address"
        }
      ],
      "name": "nonces",
      "outputs": [
        {
          "internalType": "uint256",
          "name": "",
          "type": "uint256"
        }
      ],
      "stateMutability": "view",
      "type": "function"
    },
    {
      "inputs": [],
      "name": "owner",
      "outputs": [
        {
          "internalType": "address",
          "name": "",
          "type": "address"
        }
      ],
      "stateMutability": "view",
      "type": "function"
    },
    {
      "inputs": [
        {
          "internalType": "address",
          "name": "owner",
          "type": "address"
        },
        {
          "internalType": "address",
          "name": "spender",
          "type": "address"
        },
        {
          "internalType": "uint256",
          "name": "value",
          "type": "uint256"
        },
        {
          "internalType": "uint256",
          "name": "deadline",
          "type": "uint256"
        },
        {
          "internalType": "uint8",
          "name": "v",
          "type": "uint8"
        },
        {
          "internalType": "bytes32",
          "name": "r",
          "type": "bytes32"
        },
        {
          "internalType": "bytes32",
          "name": "s",
          "type": "bytes32"
        }
      ],
      "name": "permit",
      "outputs": [],
      "stateMutability": "nonpayable",
      "type": "function"
    },
    {
      "inputs": [
        {
          "internalType": "address[]",
          "name": "addressesToRemove",
          "type": "address[]"
        }
      ],
      "name": "removeFromTokenTransferAllowlist",
      "outputs": [],
      "stateMutability": "nonpayable",
      "type": "function"
    },
    {
      "inputs": [],
      "name": "renounceOwnership",
      "outputs": [],
      "stateMutability": "nonpayable",
      "type": "function"
    },
    {
      "inputs": [],
      "name": "symbol",
      "outputs": [
        {
          "internalType": "string",
          "name": "",
          "type": "string"
        }
      ],
      "stateMutability": "view",
      "type": "function"
    },
    {
      "inputs": [],
      "name": "totalSupply",
      "outputs": [
        {
          "internalType": "uint256",
          "name": "",
          "type": "uint256"
        }
      ],
      "stateMutability": "view",
      "type": "function"
    },
    {
      "inputs": [
        {
          "internalType": "address",
          "name": "recipient",
          "type": "address"
        },
        {
          "internalType": "uint256",
          "name": "amount",
          "type": "uint256"
        }
      ],
      "name": "transfer",
      "outputs": [
        {
          "internalType": "bool",
          "name": "",
          "type": "bool"
        }
      ],
      "stateMutability": "nonpayable",
      "type": "function"
    },
    {
      "inputs": [
        {
          "internalType": "address",
          "name": "sender",
          "type": "address"
        },
        {
          "internalType": "address",
          "name": "recipient",
          "type": "address"
        },
        {
          "internalType": "uint256",
          "name": "amount",
          "type": "uint256"
        }
      ],
      "name": "transferFrom",
      "outputs": [
        {
          "internalType": "bool",
          "name": "",
          "type": "bool"
        }
      ],
      "stateMutability": "nonpayable",
      "type": "function"
    },
    {
      "inputs": [
        {
          "internalType": "address",
          "name": "newOwner",
          "type": "address"
        }
      ],
      "name": "transferOwnership",
      "outputs": [],
      "stateMutability": "nonpayable",
      "type": "function"
    },
    {
      "inputs": [
        {
          "internalType": "uint256",
          "name": "transfersRestrictedBefore",
          "type": "uint256"
        }
      ],
      "name": "updateTransfersRestrictedBefore",
      "outputs": [],
      "stateMutability": "nonpayable",
      "type": "function"
    }
  ],
  "bytecode": "0x60c06040523480156200001157600080fd5b506040516200363c3803806200363c833981810160405260608110156200003757600080fd5b50805160208083015160409384015184518086018652600f81526e23b0b630bc3cabb0b9102a37b5b2b760891b818501908152865180880190975260038088526211d5d560ea1b9588019590955281519596939592949193926200009d929190620009e9565b508051620000b3906004906020840190620009e9565b50506005805460ff19166012179055506000620000cf620002df565b60058054610100600160a81b0319166101006001600160a01b03841690810291909117909155604051919250906000907f8be0079c531659141344cd1fd0a4f28419497f9722a3daafe3b4186f6b6457e0908290a350604080518082018252600f81526e23b0b630bc3cabb0b9102a37b5b2b760891b6020918201528151808301835260018152603160f81b9082015281517f8b73c3c69bb8fe3d512ecc4cf759cc79239f7b179b0ffacaa9a75d522b39400f818301527f728a8e0c71663144977f48baf04df036d89fb85ad402f369bcd6eeae6b4c4b13818401527fc89efdaa54c0f20c7adf612882df0950f5a951637e0307cdcb4c672f298b8bc660608201524660808083018290523060a0808501919091528551808503909101815260c090930190945281519190920120909152428311620002405760405162461bcd60e51b8152600401808060200182810382526025815260200180620035f76025913960400191505060405180910390fd5b81831115620002815760405162461bcd60e51b8152600401808060200182810382526022815260200180620035d56022913960400191505060405180910390fd5b601083905560a0829052620002a2846a52b7d2dcc80cd2e4000000620002e3565b6040805184815290517fd7b9c9321b627ff004969698b4616502d6b7305a588e685489e91c46fca509a99181900360200190a15050505062000a95565b3390565b620002fa82826200038360201b62001c381760201c565b600e544360006200030a62000492565b6040805180820182526001600160801b03858116825283811660208084019182526000898152600d8252949094209251835491516001600160801b0319909216908316178216600160801b91909216021790559091506200037990849060019062000498811b62001d2817901c565b600e555050505050565b6001600160a01b038216620003df576040805162461bcd60e51b815260206004820152601f60248201527f45524332303a206d696e7420746f20746865207a65726f206164647265737300604482015290519081900360640190fd5b620003ed60008383620004fc565b62000409816002546200049860201b62001d281790919060201c565b6002556001600160a01b038216600090815260208181526040909120546200043c91839062001d2862000498821b17901c565b6001600160a01b0383166000818152602081815260408083209490945583518581529351929391927fddf252ad1be2c89b69c2b068fc378daa952ba7f163c4a11628f55a4df523b3ef9281900390910190a35050565b60025490565b600082820183811015620004f3576040805162461bcd60e51b815260206004820152601b60248201527f536166654d6174683a206164646974696f6e206f766572666c6f770000000000604482015290519081900360640190fd5b90505b92915050565b60006200050b84600962000567565b905060006200051c84600962000567565b90506200052d828285600062000594565b60006200053c86600c62000567565b905060006200054d86600c62000567565b90506200055e828287600162000594565b50505050505050565b6001600160a01b0380831660009081526020839052604081205490911680620004f35783915050620004f6565b826001600160a01b0316846001600160a01b03161415620005b557620007ac565b600080620005c383620007b2565b5090925090506001600160a01b03861615620006b9576001600160a01b038616600090815260208290526040812054801562000637576001600160a01b03881660009081526020858152604080832060001985018452909152902054600160801b90046001600160801b0316915062000645565b6200064288620007ef565b91505b60006200066187846200080a60201b62001d821790919060201c565b90506200067185858b8462000854565b886001600160a01b03166000805160206200361c833981519152828860405180838152602001826001811115620006a457fe5b81526020019250505060405180910390a25050505b6001600160a01b03851615620007a9576001600160a01b038516600090815260208290526040812054801562000727576001600160a01b03871660009081526020858152604080832060001985018452909152902054600160801b90046001600160801b0316915062000735565b6200073287620007ef565b91505b60006200075187846200049860201b62001d281790919060201c565b90506200076185858a8462000854565b876001600160a01b03166000805160206200361c8339815191528288604051808381526020018260018111156200079457fe5b81526020019250505060405180910390a25050505b50505b50505050565b6000808080846001811115620007c457fe5b1415620007dc575060079150600890506009620007e8565b50600a9150600b9050600c5b9193909250565b6001600160a01b031660009081526020819052604090205490565b6000620004f383836040518060400160405280601e81526020017f536166654d6174683a207375627472616374696f6e206f766572666c6f7700008152506200094e60201b60201c565b6001600160a01b03821660009081526020848152604080832054918790529091204391908115801590620008a6575060001982016000908152602082905260409020546001600160801b038481169116145b15620008dd576000198201600090815260208290526040902080546001600160801b03808716600160801b0291161790556200055e565b6040805180820182526001600160801b039485168152948416602080870191825260008581529381528284209651875492518716600160801b029087166001600160801b031990931692909217909516179094556001600160a01b0394909416845293905290206001909101905550565b60008184841115620009e15760405162461bcd60e51b81526004018080602001828103825283818151815260200191508051906020019080838360005b83811015620009a55781810151838201526020016200098b565b50505050905090810190601f168015620009d35780820380516001836020036101000a031916815260200191505b509250505060405180910390fd5b505050900390565b828054600181600116156101000203166002900490600052602060002090601f01602090048101928262000a21576000855562000a6c565b82601f1062000a3c57805160ff191683800117855562000a6c565b8280016001018555821562000a6c579182015b8281111562000a6c57825182559160200191906001019062000a4f565b5062000a7a92915062000a7e565b5090565b5b8082111562000a7a576000815560010162000a7f565b60805160a051612b0362000ad26000398061128e52806115d05280611eb6525080610ac752806113fc52806117145280611a6d5250612b036000f3fe608060405234801561001057600080fd5b50600436106102745760003560e01c80637bb73c9711610151578063c2ffbb91116100c3578063dd62ed3e11610087578063dd62ed3e146108a3578063e1b11da4146108d1578063eccec5a8146108d9578063f0eb7f8e146108e1578063f2fde38b14610907578063f713d8a81461092d57610274565b8063c2ffbb911461079f578063c3cda520146107d4578063d17deb9f1461081b578063d505accf14610823578063dc937e1c1461087457610274565b806395d89b411161011557806395d89b41146106eb578063a457c2d7146106f3578063a9059cbb1461071f578063aa9fbe021461074b578063ad36dafd14610753578063b2f4201d1461077057610274565b80637bb73c97146105b75780637ecebe00146105dd5780638aaee234146106035780638d48f4f1146106735780638da5cb5b146106e357610274565b806339509351116101ea5780635b3cc0cf116101ae5780635b3cc0cf146104da5780635c19a95c146105065780635f3b68761461052e5780636f50458d1461055a57806370a0823114610589578063715018a6146105af57610274565b8063395093511461041857806341cbf54a1461044457806348032ec11461044c578063537f215c14610472578063549aa8a3146104b457610274565b806323b872dd1161023c57806323b872dd146103a45780632b4e1a5b146103da5780632ff2e9dc146103e257806330adf81f146103ea578063313ce567146103f25780633644e5151461041057610274565b806306fdde0314610279578063095ea7b3146102f657806313929bbe1461033657806318160ddd146103825780631ff06fdf1461039c575b600080fd5b61028161097e565b6040805160208082528351818301528351919283929083019185019080838360005b838110156102bb5781810151838201526020016102a3565b50505050905090810190601f1680156102e85780820380516001836020036101000a031916815260200191505b509250505060405180910390f35b6103226004803603604081101561030c57600080fd5b506001600160a01b038135169060200135610a14565b604080519115158252519081900360200190f35b6103536004803603602081101561034c57600080fd5b5035610a32565b60405180836001600160801b03168152602001826001600160801b031681526020019250505060405180910390f35b61038a610a58565b60408051918252519081900360200190f35b61038a610a5e565b610322600480360360608110156103ba57600080fd5b506001600160a01b03813581169160208101359091169060400135610a64565b61038a610a83565b61038a610a89565b61038a610a98565b6103fa610abc565b6040805160ff9092168252519081900360200190f35b61038a610ac5565b6103226004803603604081101561042e57600080fd5b506001600160a01b038135169060200135610ae9565b61038a610b3c565b6103226004803603602081101561046257600080fd5b50356001600160a01b0316610b60565b6104986004803603602081101561048857600080fd5b50356001600160a01b0316610b75565b604080516001600160a01b039092168252519081900360200190f35b61038a600480360360208110156104ca57600080fd5b50356001600160a01b0316610b90565b610353600480360360408110156104f057600080fd5b506001600160a01b038135169060200135610ba2565b61052c6004803603602081101561051c57600080fd5b50356001600160a01b0316610bd3565b005b6103536004803603604081101561054457600080fd5b506001600160a01b038135169060200135610bee565b6104986004803603604081101561057057600080fd5b5080356001600160a01b0316906020013560ff16610c1f565b61038a6004803603602081101561059f57600080fd5b50356001600160a01b0316610c39565b61052c610c54565b61038a600480360360208110156105cd57600080fd5b50356001600160a01b0316610d01565b61038a600480360360208110156105f357600080fd5b50356001600160a01b0316610d13565b61052c6004803603602081101561061957600080fd5b81019060208101813564010000000081111561063457600080fd5b82018360208201111561064657600080fd5b8035906020019184602083028401116401000000008311171561066857600080fd5b509092509050610d2e565b61052c6004803603602081101561068957600080fd5b8101906020810181356401000000008111156106a457600080fd5b8201836020820111156106b657600080fd5b803590602001918460208302840111640100000000831117156106d857600080fd5b509092509050610ed4565b610498611074565b610281611088565b6103226004803603604081101561070957600080fd5b506001600160a01b0381351690602001356110e9565b6103226004803603604081101561073557600080fd5b506001600160a01b038135169060200135611151565b61038a611175565b61052c6004803603602081101561076957600080fd5b5035611199565b61038a6004803603604081101561078657600080fd5b5080356001600160a01b0316906020013560ff1661133d565b61038a600480360360608110156107b557600080fd5b5080356001600160a01b0316906020810135906040013560ff16611365565b61052c600480360360c08110156107ea57600080fd5b506001600160a01b038135169060208101359060408101359060ff6060820135169060808101359060a0013561138e565b61038a6115ce565b61052c600480360360e081101561083957600080fd5b506001600160a01b03813581169160208101359091169060408101359060608101359060ff6080820135169060a08101359060c001356115f2565b61052c6004803603604081101561088a57600080fd5b5080356001600160a01b0316906020013560ff16611848565b61038a600480360360408110156108b957600080fd5b506001600160a01b0381358116916020013516611857565b61038a611882565b6102816118a6565b610498600480360360208110156108f757600080fd5b50356001600160a01b03166118c3565b61052c6004803603602081101561091d57600080fd5b50356001600160a01b03166118de565b61052c600480360360e081101561094357600080fd5b506001600160a01b038135169060ff602082013581169160408101359160608201359160808101359091169060a08101359060c001356119e7565b60038054604080516020601f6002600019610100600188161502019095169490940493840181900481028201810190925282815260609390929091830182828015610a0a5780601f106109df57610100808354040283529160200191610a0a565b820191906000526020600020905b8154815290600101906020018083116109ed57829003601f168201915b5050505050905090565b6000610a28610a21611dc4565b8484611dc8565b5060015b92915050565b600d602052600090815260409020546001600160801b0380821691600160801b90041682565b60025490565b60105481565b6000610a708484611eb4565b610a7b848484611f79565b949350505050565b600e5481565b6a52b7d2dcc80cd2e400000081565b7f6e71edae12b1b97f4d1f60370fef10105fa2faae0126114a169c64845d6126c981565b60055460ff1690565b7f000000000000000000000000000000000000000000000000000000000000000081565b6000610a28610af6611dc4565b84610b378560016000610b07611dc4565b6001600160a01b03908116825260208083019390935260409182016000908120918c168152925290205490611d28565b611dc8565b7f9a9a49b990ba9bb39f8048c490a40ab25c18f55d208d5fbcf958261a9b48716d81565b600f6020526000908152604090205460ff1681565b6009602052600090815260409020546001600160a01b031681565b600b6020526000908152604090205481565b60076020908152600092835260408084209091529082529020546001600160801b0380821691600160801b90041682565b610bdf33826000611ffb565b610beb33826001611ffb565b50565b600a6020908152600092835260408084209091529082529020546001600160801b0380821691600160801b90041682565b600080610c2b8361210c565b92505050610a7b8482612146565b6001600160a01b031660009081526020819052604090205490565b610c5c611dc4565b60055461010090046001600160a01b03908116911614610cb1576040805162461bcd60e51b815260206004820181905260248201526000805160206129ce833981519152604482015290519081900360640190fd5b60055460405160009161010090046001600160a01b0316907f8be0079c531659141344cd1fd0a4f28419497f9722a3daafe3b4186f6b6457e0908390a360058054610100600160a81b0319169055565b60086020526000908152604090205481565b6001600160a01b031660009081526006602052604090205490565b610d36611dc4565b60055461010090046001600160a01b03908116911614610d8b576040805162461bcd60e51b815260206004820181905260248201526000805160206129ce833981519152604482015290519081900360640190fd5b60005b81811015610ecf57600f6000848484818110610da657fe5b602090810292909201356001600160a01b03168352508101919091526040016000205460ff1615610e085760405162461bcd60e51b8152600401808060200182810382526024815260200180612a136024913960400191505060405180910390fd5b6001600f6000858585818110610e1a57fe5b905060200201356001600160a01b03166001600160a01b03166001600160a01b0316815260200190815260200160002060006101000a81548160ff0219169083151502179055507f80e7b8bab7ab72e47957c0c472ede1b89bb3e7d2ba30cd37c2d6b000b49a960a838383818110610e8e57fe5b905060200201356001600160a01b0316600160405180836001600160a01b0316815260200182151581526020019250505060405180910390a1600101610d8e565b505050565b610edc611dc4565b60055461010090046001600160a01b03908116911614610f31576040805162461bcd60e51b815260206004820181905260248201526000805160206129ce833981519152604482015290519081900360640190fd5b60005b81811015610ecf57600f6000848484818110610f4c57fe5b602090810292909201356001600160a01b03168352508101919091526040016000205460ff16610fad5760405162461bcd60e51b815260040180806020018281038252602c815260200180612a5b602c913960400191505060405180910390fd5b6000600f6000858585818110610fbf57fe5b905060200201356001600160a01b03166001600160a01b03166001600160a01b0316815260200190815260200160002060006101000a81548160ff0219169083151502179055507f80e7b8bab7ab72e47957c0c472ede1b89bb3e7d2ba30cd37c2d6b000b49a960a83838381811061103357fe5b905060200201356001600160a01b0316600060405180836001600160a01b0316815260200182151581526020019250505060405180910390a1600101610f34565b60055461010090046001600160a01b031690565b60048054604080516020601f6002600019610100600188161502019095169490940493840181900481028201810190925282815260609390929091830182828015610a0a5780601f106109df57610100808354040283529160200191610a0a565b6000610a286110f6611dc4565b84610b3785604051806060016040528060258152602001612aa96025913960016000611120611dc4565b6001600160a01b03908116825260208083019390935260409182016000908120918d16815292529020549190612171565b600061116461115e611dc4565b84611eb4565b61116e8383612208565b9392505050565b7f10d8d059343739efce7dad10d09f0806da52b252b3e6a7951920d2d6ec4102e581565b6111a1611dc4565b60055461010090046001600160a01b039081169116146111f6576040805162461bcd60e51b815260206004820181905260248201526000805160206129ce833981519152604482015290519081900360640190fd5b60105442811161124d576040805162461bcd60e51b815260206004820152601a60248201527f5452414e534645525f5245535452494354494f4e5f454e444544000000000000604482015290519081900360640190fd5b8181111561128c5760405162461bcd60e51b8152600401808060200182810382526022815260200180612a876022913960400191505060405180910390fd5b7f0000000000000000000000000000000000000000000000000000000000000000821115611301576040805162461bcd60e51b815260206004820152601e60248201527f41465445525f4d41585f5452414e534645525f5245535452494354494f4e0000604482015290519081900360640190fd5b60108290556040805183815290517fd7b9c9321b627ff004969698b4616502d6b7305a588e685489e91c46fca509a99181900360200190a15050565b600080600061134b8461210c565b509150915061135c8282874361221c565b95945050505050565b60008060006113738461210c565b50915091506113848282888861221c565b9695505050505050565b604080517f9a9a49b990ba9bb39f8048c490a40ab25c18f55d208d5fbcf958261a9b48716d6020808301919091526001600160a01b038916828401526060820188905260808083018890528351808403909101815260a08301845280519082012061190160f01b60c08401527f000000000000000000000000000000000000000000000000000000000000000060c284015260e2808401829052845180850390910181526101028401808652815191840191909120600091829052610122850180875281905260ff891661014286015261016285018890526101828501879052945191949390926001926101a280840193601f198301929081900390910190855afa1580156114a1573d6000803e3d6000fd5b5050604051601f1901519150506001600160a01b0381166114fd576040805162461bcd60e51b8152602060048201526011602482015270494e56414c49445f5349474e415455524560781b604482015290519081900360640190fd5b6001600160a01b03811660009081526006602052604090208054600181019091558814611561576040805162461bcd60e51b815260206004820152600d60248201526c494e56414c49445f4e4f4e434560981b604482015290519081900360640190fd5b864211156115ab576040805162461bcd60e51b815260206004820152601260248201527124a72b20a624a22fa2ac2824a920aa24a7a760711b604482015290519081900360640190fd5b6115b7818a6000611ffb565b6115c3818a6001611ffb565b505050505050505050565b7f000000000000000000000000000000000000000000000000000000000000000081565b6001600160a01b03871661163d576040805162461bcd60e51b815260206004820152600d60248201526c24a72b20a624a22fa7aba722a960991b604482015290519081900360640190fd5b83421115611687576040805162461bcd60e51b815260206004820152601260248201527124a72b20a624a22fa2ac2824a920aa24a7a760711b604482015290519081900360640190fd5b6001600160a01b0380881660008181526006602090815260408083205481517f6e71edae12b1b97f4d1f60370fef10105fa2faae0126114a169c64845d6126c98185015280830195909552948b166060850152608084018a905260a0840185905260c08085018a90528151808603909101815260e08501825280519083012061190160f01b6101008601527f000000000000000000000000000000000000000000000000000000000000000061010286015261012280860191909152815180860390910181526101428501808352815191840191909120939052610162840180825283905260ff88166101828501526101a284018790526101c284018690525191926001926101e28083019392601f198301929081900390910190855afa1580156117b6573d6000803e3d6000fd5b505050602060405103516001600160a01b0316896001600160a01b031614611819576040805162461bcd60e51b8152602060048201526011602482015270494e56414c49445f5349474e415455524560781b604482015290519081900360640190fd5b611824826001611d28565b6001600160a01b038a166000908152600660205260409020556115c3898989611dc8565b611853338383611ffb565b5050565b6001600160a01b03918216600090815260016020908152604080832093909416825291909152205490565b7f8b73c3c69bb8fe3d512ecc4cf759cc79239f7b179b0ffacaa9a75d522b39400f81565b604051806040016040528060018152602001603160f81b81525081565b600c602052600090815260409020546001600160a01b031681565b6118e6611dc4565b60055461010090046001600160a01b0390811691161461193b576040805162461bcd60e51b815260206004820181905260248201526000805160206129ce833981519152604482015290519081900360640190fd5b6001600160a01b0381166119805760405162461bcd60e51b81526004018080602001828103825260268152602001806129386026913960400191505060405180910390fd5b6005546040516001600160a01b0380841692610100900416907f8be0079c531659141344cd1fd0a4f28419497f9722a3daafe3b4186f6b6457e090600090a3600580546001600160a01b0390921661010002610100600160a81b0319909216919091179055565b60007f10d8d059343739efce7dad10d09f0806da52b252b3e6a7951920d2d6ec4102e588886001811115611a1757fe5b604080516020808201959095526001600160a01b039093168382015260608301919091526080820189905260a08083018990528151808403909101815260c08301825280519084012061190160f01b60e08401527f000000000000000000000000000000000000000000000000000000000000000060e2840152610102808401829052825180850390910181526101228401808452815191860191909120600091829052610142850180855281905260ff8a1661016286015261018285018990526101a285018890529251919550919391926001926101c2808301939192601f198301929081900390910190855afa158015611b17573d6000803e3d6000fd5b5050604051601f1901519150506001600160a01b038116611b73576040805162461bcd60e51b8152602060048201526011602482015270494e56414c49445f5349474e415455524560781b604482015290519081900360640190fd5b6001600160a01b03811660009081526006602052604090208054600181019091558814611bd7576040805162461bcd60e51b815260206004820152600d60248201526c494e56414c49445f4e4f4e434560981b604482015290519081900360640190fd5b86421115611c21576040805162461bcd60e51b815260206004820152601260248201527124a72b20a624a22fa2ac2824a920aa24a7a760711b604482015290519081900360640190fd5b611c2c818b8b611ffb565b50505050505050505050565b6001600160a01b038216611c93576040805162461bcd60e51b815260206004820152601f60248201527f45524332303a206d696e7420746f20746865207a65726f206164647265737300604482015290519081900360640190fd5b611c9f60008383612437565b600254611cac9082611d28565b6002556001600160a01b038216600090815260208190526040902054611cd29082611d28565b6001600160a01b0383166000818152602081815260408083209490945583518581529351929391927fddf252ad1be2c89b69c2b068fc378daa952ba7f163c4a11628f55a4df523b3ef9281900390910190a35050565b60008282018381101561116e576040805162461bcd60e51b815260206004820152601b60248201527f536166654d6174683a206164646974696f6e206f766572666c6f770000000000604482015290519081900360640190fd5b600061116e83836040518060400160405280601e81526020017f536166654d6174683a207375627472616374696f6e206f766572666c6f770000815250612171565b3390565b6001600160a01b038316611e0d5760405162461bcd60e51b8152600401808060200182810382526024815260200180612a376024913960400191505060405180910390fd5b6001600160a01b038216611e525760405162461bcd60e51b815260040180806020018281038252602281526020018061295e6022913960400191505060405180910390fd5b6001600160a01b03808416600081815260016020908152604080832094871680845294825291829020859055815185815291517f8c5be1e5ebec7d5bd14f71427d1e84f3dd0314c0f7b2291e5b200ac8c7c3b9259281900390910190a3505050565b7f000000000000000000000000000000000000000000000000000000000000000042108015611ee4575060105442105b15611853576001600160a01b0382166000908152600f602052604090205460ff1680611f2857506001600160a01b0381166000908152600f602052604090205460ff165b611853576040805162461bcd60e51b815260206004820181905260248201527f4e4f4e5f414c4c4f574c4953545f5452414e53464552535f44495341424c4544604482015290519081900360640190fd5b6000611f86848484612496565b611ff184611f92611dc4565b610b37856040518060600160405280602881526020016129a6602891396001600160a01b038a16600090815260016020526040812090611fd0611dc4565b6001600160a01b031681526020810191909152604001600020549190612171565b5060019392505050565b6001600160a01b03821661204a576040805162461bcd60e51b8152602060048201526011602482015270494e56414c49445f44454c45474154454560781b604482015290519081900360640190fd5b60006120558261210c565b92505050600061206485610c39565b905060006120728684612146565b6001600160a01b03878116600090815260208690526040902080546001600160a01b03191691881691909117905590506120ae818684876125f1565b846001600160a01b0316866001600160a01b03167fe8d51c8e11bd570db1734c8ec775785330e77007feed45c43b608ef33ff914bd86604051808260018111156120f457fe5b815260200191505060405180910390a3505050505050565b600080808084600181111561211d57fe5b141561213357506007915060089050600961213f565b50600a9150600b9050600c5b9193909250565b6001600160a01b038083166000908152602083905260408120549091168061116e5783915050610a2c565b600081848411156122005760405162461bcd60e51b81526004018080602001828103825283818151815260200191508051906020019080838360005b838110156121c55781810151838201526020016121ad565b50505050905090810190601f1680156121f25780820380516001836020036101000a031916815260200191505b509250505060405180910390fd5b505050900390565b6000610a28612215611dc4565b8484612496565b60004382111561226a576040805162461bcd60e51b815260206004820152601460248201527324a72b20a624a22fa12627a1a5afa72aa6a122a960611b604482015290519081900360640190fd5b6001600160a01b038316600090815260208590526040902054806122995761229184610c39565b915050610a7b565b6001600160a01b038416600090815260208781526040808320600019850184529091529020546001600160801b0316831061230c576001600160a01b038416600090815260208781526040808320600019909401835292905220546001600160801b03600160801b909104169050610a7b565b6001600160a01b0384166000908152602087815260408083208380529091529020546001600160801b0316831015612348576000915050610a7b565b600060001982015b818111156123fa5760028282030481036123686128fd565b506001600160a01b038716600090815260208a815260408083208484528252918290208251808401909352546001600160801b03808216808552600160801b90920416918301919091528714156123d257602001516001600160801b03169450610a7b9350505050565b80516001600160801b03168711156123ec578193506123f3565b6001820392505b5050612350565b506001600160a01b0385166000908152602088815260408083209383529290522054600160801b90046001600160801b0316915050949350505050565b6000612444846009612146565b90506000612453846009612146565b905061246282828560006125f1565b600061246f86600c612146565b9050600061247e86600c612146565b905061248d82828760016125f1565b50505050505050565b6001600160a01b0383166124db5760405162461bcd60e51b81526004018080602001828103825260258152602001806129ee6025913960400191505060405180910390fd5b6001600160a01b0382166125205760405162461bcd60e51b81526004018080602001828103825260238152602001806129156023913960400191505060405180910390fd5b61252b838383612437565b61256881604051806060016040528060268152602001612980602691396001600160a01b0386166000908152602081905260409020549190612171565b6001600160a01b0380851660009081526020819052604080822093909355908416815220546125979082611d28565b6001600160a01b038084166000818152602081815260409182902094909455805185815290519193928716927fddf252ad1be2c89b69c2b068fc378daa952ba7f163c4a11628f55a4df523b3ef92918290030190a3505050565b826001600160a01b0316846001600160a01b03161415612610576127f7565b60008061261c8361210c565b5090925090506001600160a01b0386161561270b576001600160a01b038616600090815260208290526040812054801561268d576001600160a01b03881660009081526020858152604080832060001985018452909152902054600160801b90046001600160801b03169150612699565b61269688610c39565b91505b60006126a58388611d82565b90506126b385858b846127fd565b886001600160a01b03167fa0a19463ee116110c9b282012d9b65cc5522dc38a9520340cbaf3142e550127f8288604051808381526020018260018111156126f657fe5b81526020019250505060405180910390a25050505b6001600160a01b038516156127f4576001600160a01b0385166000908152602082905260408120548015612776576001600160a01b03871660009081526020858152604080832060001985018452909152902054600160801b90046001600160801b03169150612782565b61277f87610c39565b91505b600061278e8388611d28565b905061279c85858a846127fd565b876001600160a01b03167fa0a19463ee116110c9b282012d9b65cc5522dc38a9520340cbaf3142e550127f8288604051808381526020018260018111156127df57fe5b81526020019250505060405180910390a25050505b50505b50505050565b6001600160a01b0382166000908152602084815260408083205491879052909120439190811580159061284e575060001982016000908152602082905260409020546001600160801b038481169116145b15612883576000198201600090815260208290526040902080546001600160801b03808716600160801b02911617905561248d565b6040805180820182526001600160801b039485168152948416602080870191825260008581529381528284209651875492518716600160801b029087166fffffffffffffffffffffffffffffffff1990931692909217909516179094556001600160a01b0394909416845293905290206001909101905550565b60408051808201909152600080825260208201529056fe45524332303a207472616e7366657220746f20746865207a65726f20616464726573734f776e61626c653a206e6577206f776e657220697320746865207a65726f206164647265737345524332303a20617070726f766520746f20746865207a65726f206164647265737345524332303a207472616e7366657220616d6f756e7420657863656564732062616c616e636545524332303a207472616e7366657220616d6f756e74206578636565647320616c6c6f77616e63654f776e61626c653a2063616c6c6572206973206e6f7420746865206f776e657245524332303a207472616e736665722066726f6d20746865207a65726f2061646472657373414444524553535f4558495354535f494e5f5452414e534645525f414c4c4f574c49535445524332303a20617070726f76652066726f6d20746865207a65726f2061646472657373414444524553535f444f45535f4e4f545f45584953545f494e5f5452414e534645525f414c4c4f574c4953544e45575f5452414e534645525f5245535452494354494f4e5f544f4f5f4541524c5945524332303a2064656372656173656420616c6c6f77616e63652062656c6f77207a65726fa264697066735822122014e98f8c7f3ad5b9150b2ebf8b7b451b37cfa16f318ebf76bfec512be0150cca64736f6c634300070500334d41585f5452414e534645525f5245535452494354494f4e5f544f4f5f4541524c595452414e53464552535f524553545249435445445f4245464f52455f544f4f5f4541524c59a0a19463ee116110c9b282012d9b65cc5522dc38a9520340cbaf3142e550127f",
  "linkReferences": {},
  "deployedLinkReferences": {}
}