{
  "_format": "hh-sol-artifact-1",
  "contractName": "ERC20GatewayWhitelist",
  "sourceName": "contracts/DarkMatter.sol",
  "abi": [
    {
      "anonymous": false,
      "inputs": [
        {
          "indexed": true,
          "internalType": "address",
          "name": "_owner",
          "type": "address"
        },
        {
          "indexed": true,
          "internalType": "address",
          "name": "_spender",
          "type": "address"
        },
        {
          "indexed": false,
          "internalType": "uint256",
          "name": "_value",
          "type": "uint256"
        }
      ],
      "name": "Approval",
      "type": "event"
    },
    {
      "anonymous": false,
      "inputs": [
        {
          "indexed": true,
          "internalType": "address",
          "name": "_from",
          "type": "address"
        },
        {
          "indexed": true,
          "internalType": "address",
          "name": "_to",
          "type": "address"
        },
        {
          "indexed": false,
          "internalType": "uint256",
          "name": "_value",
          "type": "uint256"
        }
      ],
      "name": "Transfer",
      "type": "event"
    },
    {
      "constant": true,
      "inputs": [
        {
          "internalType": "address",
          "name": "_owner",
          "type": "address"
        },
        {
          "internalType": "address",
          "name": "_spender",
          "type": "address"
        }
      ],
      "name": "allowance",
      "outputs": [
        {
          "internalType": "uint256",
          "name": "_value",
          "type": "uint256"
        }
      ],
      "payable": false,
      "stateMutability": "view",
      "type": "function"
    },
    {
      "constant": false,
      "inputs": [
        {
          "internalType": "address",
          "name": "_spender",
          "type": "address"
        },
        {
          "internalType": "uint256",
          "name": "_value",
          "type": "uint256"
        }
      ],
      "name": "approve",
      "outputs": [
        {
          "internalType": "bool",
          "name": "",
          "type": "bool"
        }
      ],
      "payable": false,
      "stateMutability": "nonpayable",
      "type": "function"
    },
    {
      "constant": true,
      "inputs": [
        {
          "internalType": "address",
          "name": "",
          "type": "address"
        }
      ],
      "name": "balanceOf",
      "outputs": [
        {
          "internalType": "uint256",
          "name": "",
          "type": "uint256"
        }
      ],
      "payable": false,
      "stateMutability": "view",
      "type": "function"
    },
    {
      "constant": false,
      "inputs": [
        {
          "internalType": "address",
          "name": "_spender",
          "type": "address"
        },
        {
          "internalType": "uint256",
          "name": "_value",
          "type": "uint256"
        }
      ],
      "name": "decreaseAllowance",
      "outputs": [
        {
          "internalType": "bool",
          "name": "",
          "type": "bool"
        }
      ],
      "payable": false,
      "stateMutability": "nonpayable",
      "type": "function"
    },
    {
      "constant": false,
      "inputs": [
        {
          "internalType": "address",
          "name": "_spender",
          "type": "address"
        },
        {
          "internalType": "uint256",
          "name": "_value",
          "type": "uint256"
        }
      ],
      "name": "increaseAllowance",
      "outputs": [
        {
          "internalType": "bool",
          "name": "",
          "type": "bool"
        }
      ],
      "payable": false,
      "stateMutability": "nonpayable",
      "type": "function"
    },
    {
      "constant": true,
      "inputs": [],
      "name": "mainchainGateway",
      "outputs": [
        {
          "internalType": "address",
          "name": "",
          "type": "address"
        }
      ],
      "payable": false,
      "stateMutability": "view",
      "type": "function"
    },
    {
      "constant": true,
      "inputs": [],
      "name": "totalSupply",
      "outputs": [
        {
          "internalType": "uint256",
          "name": "",
          "type": "uint256"
        }
      ],
      "payable": false,
      "stateMutability": "view",
      "type": "function"
    },
    {
      "constant": false,
      "inputs": [
        {
          "internalType": "address",
          "name": "_to",
          "type": "address"
        },
        {
          "internalType": "uint256",
          "name": "_value",
          "type": "uint256"
        }
      ],
      "name": "transfer",
      "outputs": [
        {
          "internalType": "bool",
          "name": "_success",
          "type": "bool"
        }
      ],
      "payable": false,
      "stateMutability": "nonpayable",
      "type": "function"
    },
    {
      "constant": false,
      "inputs": [
        {
          "internalType": "address",
          "name": "_from",
          "type": "address"
        },
        {
          "internalType": "address",
          "name": "_to",
          "type": "address"
        },
        {
          "internalType": "uint256",
          "name": "_value",
          "type": "uint256"
        }
      ],
      "name": "transferFrom",
      "outputs": [
        {
          "internalType": "bool",
          "name": "_success",
          "type": "bool"
        }
      ],
      "payable": false,
      "stateMutability": "nonpayable",
      "type": "function"
    }
  ],
  "bytecode": "0x608060405234801561001057600080fd5b506107b6806100206000396000f3fe608060405234801561001057600080fd5b50600436106100935760003560e01c80635a4ccad8116100665780635a4ccad81461015457806370a0823114610178578063a457c2d71461019e578063a9059cbb146101ca578063dd62ed3e146101f657610093565b8063095ea7b31461009857806318160ddd146100d857806323b872dd146100f25780633950935114610128575b600080fd5b6100c4600480360360408110156100ae57600080fd5b506001600160a01b038135169060200135610224565b604080519115158252519081900360200190f35b6100e061023b565b60408051918252519081900360200190f35b6100c46004803603606081101561010857600080fd5b506001600160a01b03813581169160208101359091169060400135610241565b6100c46004803603604081101561013e57600080fd5b506001600160a01b0381351690602001356102aa565b61015c6102e6565b604080516001600160a01b039092168252519081900360200190f35b6100e06004803603602081101561018e57600080fd5b50356001600160a01b03166102f5565b6100c4600480360360408110156101b457600080fd5b506001600160a01b038135169060200135610307565b6100c4600480360360408110156101e057600080fd5b506001600160a01b038135169060200135610343565b6100e06004803603604081101561020c57600080fd5b506001600160a01b0381358116916020013516610350565b600061023133848461039e565b5060015b92915050565b60005481565b60006000196102508533610350565b14610295576001600160a01b038416600090815260026020908152604080832033808552925290912054610295918691610290908663ffffffff61048a16565b61039e565b6102a08484846104e7565b5060019392505050565b3360008181526002602090815260408083206001600160a01b03871684529091528120549091610231918590610290908663ffffffff61067316565b6003546001600160a01b031681565b60016020526000908152604090205481565b3360008181526002602090815260408083206001600160a01b03871684529091528120549091610231918590610290908663ffffffff61048a16565b60006102313384846104e7565b6003546000906001600160a01b03838116911614156103725750600019610235565b506001600160a01b03918216600090815260026020908152604080832093909416825291909152205490565b6001600160a01b0383166103e35760405162461bcd60e51b815260040180806020018281038252602481526020018061075e6024913960400191505060405180910390fd5b6001600160a01b0382166104285760405162461bcd60e51b81526004018080602001828103825260228152602001806106ef6022913960400191505060405180910390fd5b6001600160a01b03808416600081815260026020908152604080832094871680845294825291829020859055815185815291517f8c5be1e5ebec7d5bd14f71427d1e84f3dd0314c0f7b2291e5b200ac8c7c3b9259281900390910190a3505050565b6000828211156104e1576040805162461bcd60e51b815260206004820152601e60248201527f536166654d6174683a207375627472616374696f6e206f766572666c6f770000604482015290519081900360640190fd5b50900390565b6001600160a01b03831661052c5760405162461bcd60e51b81526004018080602001828103825260258152602001806107396025913960400191505060405180910390fd5b6001600160a01b0382166105715760405162461bcd60e51b81526004018080602001828103825260238152602001806106cc6023913960400191505060405180910390fd5b6001600160a01b0382163014156105b95760405162461bcd60e51b81526004018080602001828103825260288152602001806107116028913960400191505060405180910390fd5b6001600160a01b0383166000908152600160205260409020546105e2908263ffffffff61048a16565b6001600160a01b038085166000908152600160205260408082209390935590841681522054610617908263ffffffff61067316565b6001600160a01b0380841660008181526001602090815260409182902094909455805185815290519193928716927fddf252ad1be2c89b69c2b068fc378daa952ba7f163c4a11628f55a4df523b3ef92918290030190a3505050565b81810182811015610235576040805162461bcd60e51b815260206004820152601b60248201527f536166654d6174683a206164646974696f6e206f766572666c6f770000000000604482015290519081900360640190fdfe45524332303a207472616e7366657220746f20746865207a65726f206164647265737345524332303a20617070726f766520746f20746865207a65726f206164647265737345524332303a207472616e7366657220746f207468697320636f6e7472616374206164647265737345524332303a207472616e736665722066726f6d20746865207a65726f206164647265737345524332303a20617070726f76652066726f6d20746865207a65726f2061646472657373a265627a7a723158203bdb89055851079938a707bfbd49936a59fb8f2a6faa91c87f578b6e34c1917464736f6c63430005110032",
  "linkReferences": {},
  "deployedLinkReferences": {}
}