{
  "_format": "hh-sol-artifact-1",
  "contractName": "ERC20Mintable",
  "sourceName": "contracts/DarkMatter.sol",
  "abi": [
    {
      "anonymous": false,
      "inputs": [
        {
          "indexed": true,
          "internalType": "address",
          "name": "_oldAdmin",
          "type": "address"
        },
        {
          "indexed": true,
          "internalType": "address",
          "name": "_newAdmin",
          "type": "address"
        }
      ],
      "name": "AdminChanged",
      "type": "event"
    },
    {
      "anonymous": false,
      "inputs": [
        {
          "indexed": true,
          "internalType": "address",
          "name": "_oldAdmin",
          "type": "address"
        }
      ],
      "name": "AdminRemoved",
      "type": "event"
    },
    {
      "anonymous": false,
      "inputs": [
        {
          "indexed": true,
          "internalType": "address",
          "name": "_owner",
          "type": "address"
        },
        {
          "indexed": true,
          "internalType": "address",
          "name": "_spender",
          "type": "address"
        },
        {
          "indexed": false,
          "internalType": "uint256",
          "name": "_value",
          "type": "uint256"
        }
      ],
      "name": "Approval",
      "type": "event"
    },
    {
      "anonymous": false,
      "inputs": [
        {
          "indexed": true,
          "internalType": "address",
          "name": "_minter",
          "type": "address"
        }
      ],
      "name": "MinterAdded",
      "type": "event"
    },
    {
      "anonymous": false,
      "inputs": [
        {
          "indexed": true,
          "internalType": "address",
          "name": "_minter",
          "type": "address"
        }
      ],
      "name": "MinterRemoved",
      "type": "event"
    },
    {
      "anonymous": false,
      "inputs": [
        {
          "indexed": true,
          "internalType": "address",
          "name": "_from",
          "type": "address"
        },
        {
          "indexed": true,
          "internalType": "address",
          "name": "_to",
          "type": "address"
        },
        {
          "indexed": false,
          "internalType": "uint256",
          "name": "_value",
          "type": "uint256"
        }
      ],
      "name": "Transfer",
      "type": "event"
    },
    {
      "constant": false,
      "inputs": [
        {
          "internalType": "address[]",
          "name": "_addedMinters",
          "type": "address[]"
        }
      ],
      "name": "addMinters",
      "outputs": [],
      "payable": false,
      "stateMutability": "nonpayable",
      "type": "function"
    },
    {
      "constant": true,
      "inputs": [],
      "name": "admin",
      "outputs": [
        {
          "internalType": "address",
          "name": "",
          "type": "address"
        }
      ],
      "payable": false,
      "stateMutability": "view",
      "type": "function"
    },
    {
      "constant": true,
      "inputs": [
        {
          "internalType": "address",
          "name": "_owner",
          "type": "address"
        },
        {
          "internalType": "address",
          "name": "_spender",
          "type": "address"
        }
      ],
      "name": "allowance",
      "outputs": [
        {
          "internalType": "uint256",
          "name": "",
          "type": "uint256"
        }
      ],
      "payable": false,
      "stateMutability": "view",
      "type": "function"
    },
    {
      "constant": false,
      "inputs": [
        {
          "internalType": "address",
          "name": "_spender",
          "type": "address"
        },
        {
          "internalType": "uint256",
          "name": "_value",
          "type": "uint256"
        }
      ],
      "name": "approve",
      "outputs": [
        {
          "internalType": "bool",
          "name": "",
          "type": "bool"
        }
      ],
      "payable": false,
      "stateMutability": "nonpayable",
      "type": "function"
    },
    {
      "constant": true,
      "inputs": [
        {
          "internalType": "address",
          "name": "",
          "type": "address"
        }
      ],
      "name": "balanceOf",
      "outputs": [
        {
          "internalType": "uint256",
          "name": "",
          "type": "uint256"
        }
      ],
      "payable": false,
      "stateMutability": "view",
      "type": "function"
    },
    {
      "constant": false,
      "inputs": [
        {
          "internalType": "address",
          "name": "_newAdmin",
          "type": "address"
        }
      ],
      "name": "changeAdmin",
      "outputs": [],
      "payable": false,
      "stateMutability": "nonpayable",
      "type": "function"
    },
    {
      "constant": false,
      "inputs": [
        {
          "internalType": "address",
          "name": "_spender",
          "type": "address"
        },
        {
          "internalType": "uint256",
          "name": "_value",
          "type": "uint256"
        }
      ],
      "name": "decreaseAllowance",
      "outputs": [
        {
          "internalType": "bool",
          "name": "",
          "type": "bool"
        }
      ],
      "payable": false,
      "stateMutability": "nonpayable",
      "type": "function"
    },
    {
      "constant": false,
      "inputs": [
        {
          "internalType": "address",
          "name": "_spender",
          "type": "address"
        },
        {
          "internalType": "uint256",
          "name": "_value",
          "type": "uint256"
        }
      ],
      "name": "increaseAllowance",
      "outputs": [
        {
          "internalType": "bool",
          "name": "",
          "type": "bool"
        }
      ],
      "payable": false,
      "stateMutability": "nonpayable",
      "type": "function"
    },
    {
      "constant": true,
      "inputs": [
        {
          "internalType": "address",
          "name": "_addr",
          "type": "address"
        }
      ],
      "name": "isMinter",
      "outputs": [
        {
          "internalType": "bool",
          "name": "",
          "type": "bool"
        }
      ],
      "payable": false,
      "stateMutability": "view",
      "type": "function"
    },
    {
      "constant": false,
      "inputs": [
        {
          "internalType": "address",
          "name": "_to",
          "type": "address"
        },
        {
          "internalType": "uint256",
          "name": "_value",
          "type": "uint256"
        }
      ],
      "name": "mint",
      "outputs": [
        {
          "internalType": "bool",
          "name": "_success",
          "type": "bool"
        }
      ],
      "payable": false,
      "stateMutability": "nonpayable",
      "type": "function"
    },
    {
      "constant": true,
      "inputs": [
        {
          "internalType": "address",
          "name": "",
          "type": "address"
        }
      ],
      "name": "minter",
      "outputs": [
        {
          "internalType": "bool",
          "name": "",
          "type": "bool"
        }
      ],
      "payable": false,
      "stateMutability": "view",
      "type": "function"
    },
    {
      "constant": true,
      "inputs": [
        {
          "internalType": "uint256",
          "name": "",
          "type": "uint256"
        }
      ],
      "name": "minters",
      "outputs": [
        {
          "internalType": "address",
          "name": "",
          "type": "address"
        }
      ],
      "payable": false,
      "stateMutability": "view",
      "type": "function"
    },
    {
      "constant": false,
      "inputs": [],
      "name": "removeAdmin",
      "outputs": [],
      "payable": false,
      "stateMutability": "nonpayable",
      "type": "function"
    },
    {
      "constant": false,
      "inputs": [
        {
          "internalType": "address[]",
          "name": "_removedMinters",
          "type": "address[]"
        }
      ],
      "name": "removeMinters",
      "outputs": [],
      "payable": false,
      "stateMutability": "nonpayable",
      "type": "function"
    },
    {
      "constant": true,
      "inputs": [],
      "name": "totalSupply",
      "outputs": [
        {
          "internalType": "uint256",
          "name": "",
          "type": "uint256"
        }
      ],
      "payable": false,
      "stateMutability": "view",
      "type": "function"
    },
    {
      "constant": false,
      "inputs": [
        {
          "internalType": "address",
          "name": "_to",
          "type": "address"
        },
        {
          "internalType": "uint256",
          "name": "_value",
          "type": "uint256"
        }
      ],
      "name": "transfer",
      "outputs": [
        {
          "internalType": "bool",
          "name": "_success",
          "type": "bool"
        }
      ],
      "payable": false,
      "stateMutability": "nonpayable",
      "type": "function"
    },
    {
      "constant": false,
      "inputs": [
        {
          "internalType": "address",
          "name": "_from",
          "type": "address"
        },
        {
          "internalType": "address",
          "name": "_to",
          "type": "address"
        },
        {
          "internalType": "uint256",
          "name": "_value",
          "type": "uint256"
        }
      ],
      "name": "transferFrom",
      "outputs": [
        {
          "internalType": "bool",
          "name": "_success",
          "type": "bool"
        }
      ],
      "payable": false,
      "stateMutability": "nonpayable",
      "type": "function"
    }
  ],
  "bytecode": "0x60806040819052600080546001600160a01b03191633178082556001600160a01b0316917f7e644d79422f17c01e4894b5f4f588d331ebfa28653d42ae832dc59e38c9798f908290a361103e806100576000396000f3fe608060405234801561001057600080fd5b506004361061010b5760003560e01c806371e2a657116100a2578063a457c2d711610071578063a457c2d7146103f3578063a9059cbb1461041f578063aa271e1a1461044b578063dd62ed3e14610471578063f851a4401461049f5761010b565b806371e2a657146102e95780638623ec7b1461038c5780638f283970146103c55780639a202d47146103eb5761010b565b80633dd08c38116100de5780633dd08c38146101cc57806340c10f19146101f25780635fc1964f1461021e57806370a08231146102c35761010b565b8063095ea7b31461011057806318160ddd1461015057806323b872dd1461016a57806339509351146101a0575b600080fd5b61013c6004803603604081101561012657600080fd5b506001600160a01b0381351690602001356104a7565b604080519115158252519081900360200190f35b6101586104be565b60408051918252519081900360200190f35b61013c6004803603606081101561018057600080fd5b506001600160a01b038135811691602081013590911690604001356104c4565b61013c600480360360408110156101b657600080fd5b506001600160a01b03813516906020013561051b565b61013c600480360360208110156101e257600080fd5b50356001600160a01b0316610557565b61013c6004803603604081101561020857600080fd5b506001600160a01b03813516906020013561056c565b6102c16004803603602081101561023457600080fd5b81019060208101813564010000000081111561024f57600080fd5b82018360208201111561026157600080fd5b8035906020019184602083028401116401000000008311171561028357600080fd5b919080806020026020016040519081016040528093929190818152602001838360200280828437600092019190915250929550610599945050505050565b005b610158600480360360208110156102d957600080fd5b50356001600160a01b0316610784565b6102c1600480360360208110156102ff57600080fd5b81019060208101813564010000000081111561031a57600080fd5b82018360208201111561032c57600080fd5b8035906020019184602083028401116401000000008311171561034e57600080fd5b919080806020026020016040519081016040528093929190818152602001838360200280828437600092019190915250929550610796945050505050565b6103a9600480360360208110156103a257600080fd5b50356108c6565b604080516001600160a01b039092168252519081900360200190f35b6102c1600480360360208110156103db57600080fd5b50356001600160a01b03166108ed565b6102c16109e2565b61013c6004803603604081101561040957600080fd5b506001600160a01b038135169060200135610a7f565b61013c6004803603604081101561043557600080fd5b506001600160a01b038135169060200135610abb565b61013c6004803603602081101561046157600080fd5b50356001600160a01b0316610ac8565b6101586004803603604081101561048757600080fd5b506001600160a01b0381358116916020013516610ae6565b6103a9610b11565b60006104b4338484610b20565b5060015b92915050565b60035481565b60006104d1848484610c0c565b6001600160a01b03841660009081526005602090815260408083203380855292529091205461051191869161050c908663ffffffff610d9816565b610b20565b5060019392505050565b3360008181526005602090815260408083206001600160a01b038716845290915281205490916104b491859061050c908663ffffffff610df516565b60026020526000908152604090205460ff1681565b3360009081526002602052604081205460ff1661058857600080fd5b6105928383610e4d565b9392505050565b6000546001600160a01b031633146105ee576040805162461bcd60e51b81526020600482015260136024820152722430b9a0b236b4b71d103737ba1030b236b4b760691b604482015290519081900360640190fd5b6000805b82518110156106875782818151811061060757fe5b6020908102919091018101516001600160a01b0381166000908152600290925260409091205490925060ff161561067f576001600160a01b038216600081815260026020526040808220805460ff19169055517fe94479a9f7e1952cc78f2d6baab678adc1b772d936c6583def489e524cb666929190a25b6001016105f2565b5060005b60015481101561077f57600181815481106106a257fe5b60009182526020808320909101546001600160a01b0316808352600290915260409091205490925060ff16610776576001805460001981019081106106e357fe5b600091825260209091200154600180546001600160a01b03909216918390811061070957fe5b600091825260209091200180546001600160a01b0319166001600160a01b039290921691909117905560018054600019810190811061074457fe5b600091825260209091200180546001600160a01b03191690556001805490610770906000198301610eec565b5061077a565b6001015b61068b565b505050565b60046020526000908152604090205481565b6000546001600160a01b031633146107eb576040805162461bcd60e51b81526020600482015260136024820152722430b9a0b236b4b71d103737ba1030b236b4b760691b604482015290519081900360640190fd5b6000805b825181101561077f5782818151811061080457fe5b6020908102919091018101516001600160a01b0381166000908152600290925260409091205490925060ff166108be576001805480820182557fb10e2d527612073b26eecdfd717e6a320cf44b4afac2b0732d9fcbe2b7fa0cf60180546001600160a01b0319166001600160a01b038516908117909155600081815260026020526040808220805460ff1916909417909355915190917f6ae172837ea30b801fbfcdd4108aa1d5bf8ff775444fd70256b44e6bf3dfc3f691a25b6001016107ef565b600181815481106108d357fe5b6000918252602090912001546001600160a01b0316905081565b6000546001600160a01b03163314610942576040805162461bcd60e51b81526020600482015260136024820152722430b9a0b236b4b71d103737ba1030b236b4b760691b604482015290519081900360640190fd5b6001600160a01b0381166109875760405162461bcd60e51b8152600401808060200182810382526027815260200180610fe36027913960400191505060405180910390fd5b600080546040516001600160a01b03808516939216917f7e644d79422f17c01e4894b5f4f588d331ebfa28653d42ae832dc59e38c9798f91a3600080546001600160a01b0319166001600160a01b0392909216919091179055565b6000546001600160a01b03163314610a37576040805162461bcd60e51b81526020600482015260136024820152722430b9a0b236b4b71d103737ba1030b236b4b760691b604482015290519081900360640190fd5b600080546040516001600160a01b03909116917fa3b62bc36326052d97ea62d63c3d60308ed4c3ea8ac079dd8499f1e9c4f80c0f91a2600080546001600160a01b0319169055565b3360008181526005602090815260408083206001600160a01b038716845290915281205490916104b491859061050c908663ffffffff610d9816565b60006104b4338484610c0c565b6001600160a01b031660009081526002602052604090205460ff1690565b6001600160a01b03918216600090815260056020908152604080832093909416825291909152205490565b6000546001600160a01b031681565b6001600160a01b038316610b655760405162461bcd60e51b8152600401808060200182810382526024815260200180610fbf6024913960400191505060405180910390fd5b6001600160a01b038216610baa5760405162461bcd60e51b8152600401808060200182810382526022815260200180610f506022913960400191505060405180910390fd5b6001600160a01b03808416600081815260056020908152604080832094871680845294825291829020859055815185815291517f8c5be1e5ebec7d5bd14f71427d1e84f3dd0314c0f7b2291e5b200ac8c7c3b9259281900390910190a3505050565b6001600160a01b038316610c515760405162461bcd60e51b8152600401808060200182810382526025815260200180610f9a6025913960400191505060405180910390fd5b6001600160a01b038216610c965760405162461bcd60e51b8152600401808060200182810382526023815260200180610f2d6023913960400191505060405180910390fd5b6001600160a01b038216301415610cde5760405162461bcd60e51b8152600401808060200182810382526028815260200180610f726028913960400191505060405180910390fd5b6001600160a01b038316600090815260046020526040902054610d07908263ffffffff610d9816565b6001600160a01b038085166000908152600460205260408082209390935590841681522054610d3c908263ffffffff610df516565b6001600160a01b0380841660008181526004602090815260409182902094909455805185815290519193928716927fddf252ad1be2c89b69c2b068fc378daa952ba7f163c4a11628f55a4df523b3ef92918290030190a3505050565b600082821115610def576040805162461bcd60e51b815260206004820152601e60248201527f536166654d6174683a207375627472616374696f6e206f766572666c6f770000604482015290519081900360640190fd5b50900390565b818101828110156104b8576040805162461bcd60e51b815260206004820152601b60248201527f536166654d6174683a206164646974696f6e206f766572666c6f770000000000604482015290519081900360640190fd5b600354600090610e63908363ffffffff610df516565b6003556001600160a01b038316600090815260046020526040902054610e8f908363ffffffff610df516565b6001600160a01b03841660008181526004602090815260408083209490945583518681529351929391927fddf252ad1be2c89b69c2b068fc378daa952ba7f163c4a11628f55a4df523b3ef9281900390910190a350600192915050565b81548183558181111561077f5760008381526020902061077f918101908301610f2991905b80821115610f255760008155600101610f11565b5090565b9056fe45524332303a207472616e7366657220746f20746865207a65726f206164647265737345524332303a20617070726f766520746f20746865207a65726f206164647265737345524332303a207472616e7366657220746f207468697320636f6e7472616374206164647265737345524332303a207472616e736665722066726f6d20746865207a65726f206164647265737345524332303a20617070726f76652066726f6d20746865207a65726f206164647265737348617341646d696e3a206e65772061646d696e20697320746865207a65726f2061646472657373a265627a7a723158200e09d06abb7969667826ad1cd612ad6abb786df4cec3215c99f826510230ab1064736f6c63430005110032",
  "linkReferences": {},
  "deployedLinkReferences": {}
}