{
  "_format": "hh-sol-artifact-1",
  "contractName": "HasMinters",
  "sourceName": "contracts/DarkMatter.sol",
  "abi": [
    {
      "anonymous": false,
      "inputs": [
        {
          "indexed": true,
          "internalType": "address",
          "name": "_oldAdmin",
          "type": "address"
        },
        {
          "indexed": true,
          "internalType": "address",
          "name": "_newAdmin",
          "type": "address"
        }
      ],
      "name": "AdminChanged",
      "type": "event"
    },
    {
      "anonymous": false,
      "inputs": [
        {
          "indexed": true,
          "internalType": "address",
          "name": "_oldAdmin",
          "type": "address"
        }
      ],
      "name": "AdminRemoved",
      "type": "event"
    },
    {
      "anonymous": false,
      "inputs": [
        {
          "indexed": true,
          "internalType": "address",
          "name": "_minter",
          "type": "address"
        }
      ],
      "name": "MinterAdded",
      "type": "event"
    },
    {
      "anonymous": false,
      "inputs": [
        {
          "indexed": true,
          "internalType": "address",
          "name": "_minter",
          "type": "address"
        }
      ],
      "name": "MinterRemoved",
      "type": "event"
    },
    {
      "constant": false,
      "inputs": [
        {
          "internalType": "address[]",
          "name": "_addedMinters",
          "type": "address[]"
        }
      ],
      "name": "addMinters",
      "outputs": [],
      "payable": false,
      "stateMutability": "nonpayable",
      "type": "function"
    },
    {
      "constant": true,
      "inputs": [],
      "name": "admin",
      "outputs": [
        {
          "internalType": "address",
          "name": "",
          "type": "address"
        }
      ],
      "payable": false,
      "stateMutability": "view",
      "type": "function"
    },
    {
      "constant": false,
      "inputs": [
        {
          "internalType": "address",
          "name": "_newAdmin",
          "type": "address"
        }
      ],
      "name": "changeAdmin",
      "outputs": [],
      "payable": false,
      "stateMutability": "nonpayable",
      "type": "function"
    },
    {
      "constant": true,
      "inputs": [
        {
          "internalType": "address",
          "name": "_addr",
          "type": "address"
        }
      ],
      "name": "isMinter",
      "outputs": [
        {
          "internalType": "bool",
          "name": "",
          "type": "bool"
        }
      ],
      "payable": false,
      "stateMutability": "view",
      "type": "function"
    },
    {
      "constant": true,
      "inputs": [
        {
          "internalType": "address",
          "name": "",
          "type": "address"
        }
      ],
      "name": "minter",
      "outputs": [
        {
          "internalType": "bool",
          "name": "",
          "type": "bool"
        }
      ],
      "payable": false,
      "stateMutability": "view",
      "type": "function"
    },
    {
      "constant": true,
      "inputs": [
        {
          "internalType": "uint256",
          "name": "",
          "type": "uint256"
        }
      ],
      "name": "minters",
      "outputs": [
        {
          "internalType": "address",
          "name": "",
          "type": "address"
        }
      ],
      "payable": false,
      "stateMutability": "view",
      "type": "function"
    },
    {
      "constant": false,
      "inputs": [],
      "name": "removeAdmin",
      "outputs": [],
      "payable": false,
      "stateMutability": "nonpayable",
      "type": "function"
    },
    {
      "constant": false,
      "inputs": [
        {
          "internalType": "address[]",
          "name": "_removedMinters",
          "type": "address[]"
        }
      ],
      "name": "removeMinters",
      "outputs": [],
      "payable": false,
      "stateMutability": "nonpayable",
      "type": "function"
    }
  ],
  "bytecode": "0x60806040819052600080546001600160a01b03191633178082556001600160a01b0316917f7e644d79422f17c01e4894b5f4f588d331ebfa28653d42ae832dc59e38c9798f908290a3610856806100576000396000f3fe608060405234801561001057600080fd5b50600436106100885760003560e01c80638f2839701161005b5780638f283970146102485780639a202d471461026e578063aa271e1a14610276578063f851a4401461029c57610088565b80633dd08c381461008d5780635fc1964f146100c757806371e2a6571461016c5780638623ec7b1461020f575b600080fd5b6100b3600480360360208110156100a357600080fd5b50356001600160a01b03166102a4565b604080519115158252519081900360200190f35b61016a600480360360208110156100dd57600080fd5b8101906020810181356401000000008111156100f857600080fd5b82018360208201111561010a57600080fd5b8035906020019184602083028401116401000000008311171561012c57600080fd5b9190808060200260200160405190810160405280939291908181526020018383602002808284376000920191909152509295506102b9945050505050565b005b61016a6004803603602081101561018257600080fd5b81019060208101813564010000000081111561019d57600080fd5b8201836020820111156101af57600080fd5b803590602001918460208302840111640100000000831117156101d157600080fd5b9190808060200260200160405190810160405280939291908181526020018383602002808284376000920191909152509295506104a4945050505050565b61022c6004803603602081101561022557600080fd5b50356105d4565b604080516001600160a01b039092168252519081900360200190f35b61016a6004803603602081101561025e57600080fd5b50356001600160a01b03166105fb565b61016a6106f0565b6100b36004803603602081101561028c57600080fd5b50356001600160a01b031661078d565b61022c6107ab565b60026020526000908152604090205460ff1681565b6000546001600160a01b0316331461030e576040805162461bcd60e51b81526020600482015260136024820152722430b9a0b236b4b71d103737ba1030b236b4b760691b604482015290519081900360640190fd5b6000805b82518110156103a75782818151811061032757fe5b6020908102919091018101516001600160a01b0381166000908152600290925260409091205490925060ff161561039f576001600160a01b038216600081815260026020526040808220805460ff19169055517fe94479a9f7e1952cc78f2d6baab678adc1b772d936c6583def489e524cb666929190a25b600101610312565b5060005b60015481101561049f57600181815481106103c257fe5b60009182526020808320909101546001600160a01b0316808352600290915260409091205490925060ff166104965760018054600019810190811061040357fe5b600091825260209091200154600180546001600160a01b03909216918390811061042957fe5b600091825260209091200180546001600160a01b0319166001600160a01b039290921691909117905560018054600019810190811061046457fe5b600091825260209091200180546001600160a01b031916905560018054906104909060001983016107ba565b5061049a565b6001015b6103ab565b505050565b6000546001600160a01b031633146104f9576040805162461bcd60e51b81526020600482015260136024820152722430b9a0b236b4b71d103737ba1030b236b4b760691b604482015290519081900360640190fd5b6000805b825181101561049f5782818151811061051257fe5b6020908102919091018101516001600160a01b0381166000908152600290925260409091205490925060ff166105cc576001805480820182557fb10e2d527612073b26eecdfd717e6a320cf44b4afac2b0732d9fcbe2b7fa0cf60180546001600160a01b0319166001600160a01b038516908117909155600081815260026020526040808220805460ff1916909417909355915190917f6ae172837ea30b801fbfcdd4108aa1d5bf8ff775444fd70256b44e6bf3dfc3f691a25b6001016104fd565b600181815481106105e157fe5b6000918252602090912001546001600160a01b0316905081565b6000546001600160a01b03163314610650576040805162461bcd60e51b81526020600482015260136024820152722430b9a0b236b4b71d103737ba1030b236b4b760691b604482015290519081900360640190fd5b6001600160a01b0381166106955760405162461bcd60e51b81526004018080602001828103825260278152602001806107fb6027913960400191505060405180910390fd5b600080546040516001600160a01b03808516939216917f7e644d79422f17c01e4894b5f4f588d331ebfa28653d42ae832dc59e38c9798f91a3600080546001600160a01b0319166001600160a01b0392909216919091179055565b6000546001600160a01b03163314610745576040805162461bcd60e51b81526020600482015260136024820152722430b9a0b236b4b71d103737ba1030b236b4b760691b604482015290519081900360640190fd5b600080546040516001600160a01b03909116917fa3b62bc36326052d97ea62d63c3d60308ed4c3ea8ac079dd8499f1e9c4f80c0f91a2600080546001600160a01b0319169055565b6001600160a01b031660009081526002602052604090205460ff1690565b6000546001600160a01b031681565b81548183558181111561049f5760008381526020902061049f9181019083016107f791905b808211156107f357600081556001016107df565b5090565b9056fe48617341646d696e3a206e65772061646d696e20697320746865207a65726f2061646472657373a265627a7a72315820219dd060d0c9e3edc596404ee286fb03e29b482e8c5cbbfc8d532428c8c55c5464736f6c63430005110032",
  "linkReferences": {},
  "deployedLinkReferences": {}
}